{
  "contractName": "Creatorcoins",
  "abi": [
    {
      "inputs": [],
      "stateMutability": "nonpayable",
      "type": "constructor"
    },
    {
      "anonymous": false,
      "inputs": [
        {
          "indexed": true,
          "internalType": "address",
          "name": "tokenOwner",
          "type": "address"
        },
        {
          "indexed": true,
          "internalType": "address",
          "name": "spender",
          "type": "address"
        },
        {
          "indexed": false,
          "internalType": "uint256",
          "name": "tokens",
          "type": "uint256"
        }
      ],
      "name": "Approval",
      "type": "event"
    },
    {
      "anonymous": false,
      "inputs": [
        {
          "indexed": true,
          "internalType": "address",
          "name": "from",
          "type": "address"
        },
        {
          "indexed": true,
          "internalType": "address",
          "name": "to",
          "type": "address"
        },
        {
          "indexed": false,
          "internalType": "uint256",
          "name": "tokens",
          "type": "uint256"
        }
      ],
      "name": "Transfer",
      "type": "event"
    },
    {
      "inputs": [
        {
          "internalType": "address",
          "name": "",
          "type": "address"
        }
      ],
      "name": "accounts",
      "outputs": [
        {
          "internalType": "uint256",
          "name": "",
          "type": "uint256"
        }
      ],
      "stateMutability": "view",
      "type": "function",
      "constant": true
    },
    {
      "inputs": [
        {
          "internalType": "address",
          "name": "",
          "type": "address"
        },
        {
          "internalType": "address",
          "name": "",
          "type": "address"
        }
      ],
      "name": "approved",
      "outputs": [
        {
          "internalType": "uint256",
          "name": "",
          "type": "uint256"
        }
      ],
      "stateMutability": "view",
      "type": "function",
      "constant": true
    },
    {
      "inputs": [],
      "name": "decimals",
      "outputs": [
        {
          "internalType": "uint256",
          "name": "",
          "type": "uint256"
        }
      ],
      "stateMutability": "view",
      "type": "function",
      "constant": true
    },
    {
      "inputs": [],
      "name": "name",
      "outputs": [
        {
          "internalType": "string",
          "name": "",
          "type": "string"
        }
      ],
      "stateMutability": "view",
      "type": "function",
      "constant": true
    },
    {
      "inputs": [],
      "name": "owneroftokens",
      "outputs": [
        {
          "internalType": "address",
          "name": "",
          "type": "address"
        }
      ],
      "stateMutability": "view",
      "type": "function",
      "constant": true
    },
    {
      "inputs": [],
      "name": "symbol",
      "outputs": [
        {
          "internalType": "string",
          "name": "",
          "type": "string"
        }
      ],
      "stateMutability": "view",
      "type": "function",
      "constant": true
    },
    {
      "inputs": [],
      "name": "totalsupply",
      "outputs": [
        {
          "internalType": "uint256",
          "name": "",
          "type": "uint256"
        }
      ],
      "stateMutability": "view",
      "type": "function",
      "constant": true
    },
    {
      "inputs": [],
      "name": "owner",
      "outputs": [
        {
          "internalType": "address",
          "name": "",
          "type": "address"
        }
      ],
      "stateMutability": "view",
      "type": "function",
      "constant": true
    },
    {
      "inputs": [],
      "name": "totalSupply",
      "outputs": [
        {
          "internalType": "uint256",
          "name": "",
          "type": "uint256"
        }
      ],
      "stateMutability": "view",
      "type": "function",
      "constant": true
    },
    {
      "inputs": [
        {
          "internalType": "address",
          "name": "tokenowner",
          "type": "address"
        }
      ],
      "name": "balanceOf",
      "outputs": [
        {
          "internalType": "uint256",
          "name": "",
          "type": "uint256"
        }
      ],
      "stateMutability": "view",
      "type": "function",
      "constant": true
    },
    {
      "inputs": [],
      "name": "balanceOf",
      "outputs": [
        {
          "internalType": "uint256",
          "name": "",
          "type": "uint256"
        }
      ],
      "stateMutability": "view",
      "type": "function",
      "constant": true
    },
    {
      "inputs": [
        {
          "internalType": "address",
          "name": "to",
          "type": "address"
        },
        {
          "internalType": "uint256",
          "name": "tokens",
          "type": "uint256"
        }
      ],
      "name": "transferto",
      "outputs": [
        {
          "internalType": "bool",
          "name": "success",
          "type": "bool"
        }
      ],
      "stateMutability": "nonpayable",
      "type": "function"
    },
    {
      "inputs": [
        {
          "internalType": "address",
          "name": "from",
          "type": "address"
        },
        {
          "internalType": "uint256",
          "name": "tokens",
          "type": "uint256"
        }
      ],
      "name": "transferfrom",
      "outputs": [
        {
          "internalType": "bool",
          "name": "success",
          "type": "bool"
        }
      ],
      "stateMutability": "nonpayable",
      "type": "function"
    },
    {
      "inputs": [
        {
          "internalType": "address",
          "name": "spender",
          "type": "address"
        },
        {
          "internalType": "uint256",
          "name": "tokens",
          "type": "uint256"
        }
      ],
      "name": "approve",
      "outputs": [
        {
          "internalType": "bool",
          "name": "success",
          "type": "bool"
        }
      ],
      "stateMutability": "nonpayable",
      "type": "function"
    },
    {
      "inputs": [
        {
          "internalType": "address",
          "name": "tokenOwner",
          "type": "address"
        },
        {
          "internalType": "address",
          "name": "spender",
          "type": "address"
        }
      ],
      "name": "allowance",
      "outputs": [
        {
          "internalType": "uint256",
          "name": "",
          "type": "uint256"
        }
      ],
      "stateMutability": "view",
      "type": "function",
      "constant": true
    },
    {
      "inputs": [
        {
          "internalType": "address",
          "name": "from",
          "type": "address"
        },
        {
          "internalType": "address",
          "name": "to",
          "type": "address"
        },
        {
          "internalType": "uint256",
          "name": "tokens",
          "type": "uint256"
        }
      ],
      "name": "transferFrom",
      "outputs": [
        {
          "internalType": "bool",
          "name": "",
          "type": "bool"
        }
      ],
      "stateMutability": "nonpayable",
      "type": "function"
    }
  ],
  "bytecode": "0x60806040526040518060400160405280600981526020017f456c6f6e204d75736b0000000000000000000000000000000000000000000000815250600090805190602001906200005192919062000147565b506040518060400160405280600381526020017f454d540000000000000000000000000000000000000000000000000000000000815250600190805190602001906200009f92919062000147565b506012600255620f4240600355348015620000b957600080fd5b50600354600560003073ffffffffffffffffffffffffffffffffffffffff1673ffffffffffffffffffffffffffffffffffffffff1681526020019081526020016000208190555030600460006101000a81548173ffffffffffffffffffffffffffffffffffffffff021916908373ffffffffffffffffffffffffffffffffffffffff1602179055506200025b565b828054620001559062000226565b90600052602060002090601f016020900481019282620001795760008555620001c5565b82601f106200019457805160ff1916838001178555620001c5565b82800160010185558215620001c5579182015b82811115620001c4578251825591602001919060010190620001a7565b5b509050620001d49190620001d8565b5090565b5b80821115620001f3576000816000905550600101620001d9565b5090565b7f4e487b7100000000000000000000000000000000000000000000000000000000600052602260045260246000fd5b600060028204905060018216806200023f57607f821691505b602082108103620002555762000254620001f7565b5b50919050565b6114ad806200026b6000396000f3fe608060405234801561001057600080fd5b50600436106101005760003560e01c80636b48d746116100975780638da5cb5b116100665780638da5cb5b146102d957806395d89b41146102f7578063dd62ed3e14610315578063f4b160451461034557610100565b80636b48d7461461023d57806370a082311461026d578063722713f71461029d57806372dd529b146102bb57610100565b806323b872dd116100d357806323b872dd1461018f578063313ce567146101bf578063362dc8a6146101dd5780635e5c06e21461020d57610100565b8063069e4d7d1461010557806306fdde0314610123578063095ea7b31461014157806318160ddd14610171575b600080fd5b61010d610375565b60405161011a9190610fc3565b60405180910390f35b61012b61039b565b6040516101389190611077565b60405180910390f35b61015b60048036038101906101569190611100565b610429565b604051610168919061115b565b60405180910390f35b6101796105aa565b6040516101869190611185565b60405180910390f35b6101a960048036038101906101a491906111a0565b6105b4565b6040516101b6919061115b565b60405180910390f35b6101c761083a565b6040516101d49190611185565b60405180910390f35b6101f760048036038101906101f29190611100565b610840565b604051610204919061115b565b60405180910390f35b610227600480360381019061022291906111f3565b610ac7565b6040516102349190611185565b60405180910390f35b61025760048036038101906102529190611100565b610adf565b604051610264919061115b565b60405180910390f35b610287600480360381019061028291906111f3565b610d88565b6040516102949190611185565b60405180910390f35b6102a5610dd1565b6040516102b29190611185565b60405180910390f35b6102c3610e18565b6040516102d09190611185565b60405180910390f35b6102e1610e1e565b6040516102ee9190610fc3565b60405180910390f35b6102ff610e48565b60405161030c9190611077565b60405180910390f35b61032f600480360381019061032a9190611220565b610ed6565b60405161033c9190611185565b60405180910390f35b61035f600480360381019061035a9190611220565b610f5d565b60405161036c9190611185565b60405180910390f35b600460009054906101000a900473ffffffffffffffffffffffffffffffffffffffff1681565b600080546103a89061128f565b80601f01602080910402602001604051908101604052809291908181526020018280546103d49061128f565b80156104215780601f106103f657610100808354040283529160200191610421565b820191906000526020600020905b81548152906001019060200180831161040457829003601f168201915b505050505081565b600081600560003373ffffffffffffffffffffffffffffffffffffffff1673ffffffffffffffffffffffffffffffffffffffff1681526020019081526020016000205410156104ad576040517f08c379a00000000000000000000000000000000000000000000000000000000081526004016104a49061130c565b60405180910390fd5b600082116104ba57600080fd5b81600660003373ffffffffffffffffffffffffffffffffffffffff1673ffffffffffffffffffffffffffffffffffffffff16815260200190815260200160002060008573ffffffffffffffffffffffffffffffffffffffff1673ffffffffffffffffffffffffffffffffffffffff168152602001908152602001600020819055508273ffffffffffffffffffffffffffffffffffffffff163373ffffffffffffffffffffffffffffffffffffffff167f8c5be1e5ebec7d5bd14f71427d1e84f3dd0314c0f7b2291e5b200ac8c7c3b925846040516105989190611185565b60405180910390a36001905092915050565b6000600354905090565b600081600660008673ffffffffffffffffffffffffffffffffffffffff1673ffffffffffffffffffffffffffffffffffffffff16815260200190815260200160002060003373ffffffffffffffffffffffffffffffffffffffff1673ffffffffffffffffffffffffffffffffffffffff16815260200190815260200160002054101561063f57600080fd5b81600560008673ffffffffffffffffffffffffffffffffffffffff1673ffffffffffffffffffffffffffffffffffffffff16815260200190815260200160002054101561068b57600080fd5b81600560008673ffffffffffffffffffffffffffffffffffffffff1673ffffffffffffffffffffffffffffffffffffffff16815260200190815260200160002060008282546106da919061135b565b9250508190555081600560008573ffffffffffffffffffffffffffffffffffffffff1673ffffffffffffffffffffffffffffffffffffffff1681526020019081526020016000206000828254610730919061138f565b9250508190555081600660008673ffffffffffffffffffffffffffffffffffffffff1673ffffffffffffffffffffffffffffffffffffffff16815260200190815260200160002060003373ffffffffffffffffffffffffffffffffffffffff1673ffffffffffffffffffffffffffffffffffffffff16815260200190815260200160002060008282546107c3919061135b565b925050819055508273ffffffffffffffffffffffffffffffffffffffff168473ffffffffffffffffffffffffffffffffffffffff167fddf252ad1be2c89b69c2b068fc378daa952ba7f163c4a11628f55a4df523b3ef846040516108279190611185565b60405180910390a3600190509392505050565b60025481565b600081600560008573ffffffffffffffffffffffffffffffffffffffff1673ffffffffffffffffffffffffffffffffffffffff1681526020019081526020016000205410156108c4576040517f08c379a00000000000000000000000000000000000000000000000000000000081526004016108bb90611457565b60405180910390fd5b6000600560008573ffffffffffffffffffffffffffffffffffffffff1673ffffffffffffffffffffffffffffffffffffffff1681526020019081526020016000205490508281610914919061135b565b905080600560008673ffffffffffffffffffffffffffffffffffffffff1673ffffffffffffffffffffffffffffffffffffffff16815260200190815260200160002081905550600060056000600460009054906101000a900473ffffffffffffffffffffffffffffffffffffffff1673ffffffffffffffffffffffffffffffffffffffff1673ffffffffffffffffffffffffffffffffffffffff16815260200190815260200160002054905083816109cc919061138f565b90508060056000600460009054906101000a900473ffffffffffffffffffffffffffffffffffffffff1673ffffffffffffffffffffffffffffffffffffffff1673ffffffffffffffffffffffffffffffffffffffff16815260200190815260200160002081905550600460009054906101000a900473ffffffffffffffffffffffffffffffffffffffff1673ffffffffffffffffffffffffffffffffffffffff168573ffffffffffffffffffffffffffffffffffffffff167fddf252ad1be2c89b69c2b068fc378daa952ba7f163c4a11628f55a4df523b3ef86604051610ab39190611185565b60405180910390a360019250505092915050565b60056020528060005260406000206000915090505481565b60008160056000600460009054906101000a900473ffffffffffffffffffffffffffffffffffffffff1673ffffffffffffffffffffffffffffffffffffffff1673ffffffffffffffffffffffffffffffffffffffff168152602001908152602001600020541015610b85576040517f08c379a0000000000000000000000000000000000000000000000000000000008152600401610b7c90611457565b60405180910390fd5b600060056000600460009054906101000a900473ffffffffffffffffffffffffffffffffffffffff1673ffffffffffffffffffffffffffffffffffffffff1673ffffffffffffffffffffffffffffffffffffffff1681526020019081526020016000205490508281610bf7919061135b565b90508060056000600460009054906101000a900473ffffffffffffffffffffffffffffffffffffffff1673ffffffffffffffffffffffffffffffffffffffff1673ffffffffffffffffffffffffffffffffffffffff168152602001908152602001600020819055506000600560008673ffffffffffffffffffffffffffffffffffffffff1673ffffffffffffffffffffffffffffffffffffffff1681526020019081526020016000205490508381610caf919061138f565b905080600560008773ffffffffffffffffffffffffffffffffffffffff1673ffffffffffffffffffffffffffffffffffffffff168152602001908152602001600020819055508473ffffffffffffffffffffffffffffffffffffffff16600460009054906101000a900473ffffffffffffffffffffffffffffffffffffffff1673ffffffffffffffffffffffffffffffffffffffff167fddf252ad1be2c89b69c2b068fc378daa952ba7f163c4a11628f55a4df523b3ef86604051610d749190611185565b60405180910390a360019250505092915050565b6000600560008373ffffffffffffffffffffffffffffffffffffffff1673ffffffffffffffffffffffffffffffffffffffff168152602001908152602001600020549050919050565b6000600560003073ffffffffffffffffffffffffffffffffffffffff1673ffffffffffffffffffffffffffffffffffffffff16815260200190815260200160002054905090565b60035481565b6000600460009054906101000a900473ffffffffffffffffffffffffffffffffffffffff16905090565b60018054610e559061128f565b80601f0160208091040260200160405190810160405280929190818152602001828054610e819061128f565b8015610ece5780601f10610ea357610100808354040283529160200191610ece565b820191906000526020600020905b815481529060010190602001808311610eb157829003601f168201915b505050505081565b6000600660008473ffffffffffffffffffffffffffffffffffffffff1673ffffffffffffffffffffffffffffffffffffffff16815260200190815260200160002060008373ffffffffffffffffffffffffffffffffffffffff1673ffffffffffffffffffffffffffffffffffffffff16815260200190815260200160002054905092915050565b6006602052816000526040600020602052806000526040600020600091509150505481565b600073ffffffffffffffffffffffffffffffffffffffff82169050919050565b6000610fad82610f82565b9050919050565b610fbd81610fa2565b82525050565b6000602082019050610fd86000830184610fb4565b92915050565b600081519050919050565b600082825260208201905092915050565b60005b83811015611018578082015181840152602081019050610ffd565b83811115611027576000848401525b50505050565b6000601f19601f8301169050919050565b600061104982610fde565b6110538185610fe9565b9350611063818560208601610ffa565b61106c8161102d565b840191505092915050565b60006020820190508181036000830152611091818461103e565b905092915050565b600080fd5b6110a781610fa2565b81146110b257600080fd5b50565b6000813590506110c48161109e565b92915050565b6000819050919050565b6110dd816110ca565b81146110e857600080fd5b50565b6000813590506110fa816110d4565b92915050565b6000806040838503121561111757611116611099565b5b6000611125858286016110b5565b9250506020611136858286016110eb565b9150509250929050565b60008115159050919050565b61115581611140565b82525050565b6000602082019050611170600083018461114c565b92915050565b61117f816110ca565b82525050565b600060208201905061119a6000830184611176565b92915050565b6000806000606084860312156111b9576111b8611099565b5b60006111c7868287016110b5565b93505060206111d8868287016110b5565b92505060406111e9868287016110eb565b9150509250925092565b60006020828403121561120957611208611099565b5b6000611217848285016110b5565b91505092915050565b6000806040838503121561123757611236611099565b5b6000611245858286016110b5565b9250506020611256858286016110b5565b9150509250929050565b7f4e487b7100000000000000000000000000000000000000000000000000000000600052602260045260246000fd5b600060028204905060018216806112a757607f821691505b6020821081036112ba576112b9611260565b5b50919050565b7f49742073686f756c642062652067726561746572000000000000000000000000600082015250565b60006112f6601483610fe9565b9150611301826112c0565b602082019050919050565b60006020820190508181036000830152611325816112e9565b9050919050565b7f4e487b7100000000000000000000000000000000000000000000000000000000600052601160045260246000fd5b6000611366826110ca565b9150611371836110ca565b9250828210156113845761138361132c565b5b828203905092915050565b600061139a826110ca565b91506113a5836110ca565b9250827fffffffffffffffffffffffffffffffffffffffffffffffffffffffffffffffff038211156113da576113d961132c565b5b828201905092915050565b7f5468652073656e6465722063616e6e6f742073656e64206d6f7265207468616e60008201527f20776861742068652f736865206f776e73000000000000000000000000000000602082015250565b6000611441603183610fe9565b915061144c826113e5565b604082019050919050565b6000602082019050818103600083015261147081611434565b905091905056fea264697066735822122052d0f43b23d2878fb6b504267e93bf66717dc790d9ceb35fed7192d241297fa764736f6c634300080e0033",
  "immutableReferences": {},
  "source": "pragma solidity >=0.5.0 <0.9.0;\r\n\r\n//There are 2 ways to implement the ERC20 interface\r\n\r\n//First is to just import the contract that is written by the open Zipplen which is a security company\r\n//if a security company such as Open Zeppelin is providing the community with certified contracts, then,\r\n// It is better leverage the ERC20 token logic creation to a security company, and focus on the contracts for application\r\n\r\n//The second way is to just copy paste the interface that is written in the ethereum community\r\n\r\ninterface ERC20Interface { \r\n    function totalSupply() external view returns (uint);\r\n    function balanceOf(address tokenOwner) external view returns (uint balance); \r\n    function transferto(address to, uint tokens) external returns (bool success);\r\n\r\n    function allowance(address tokenOwner, address spender) external view returns (uint remaining);\r\n    function approve(address spender, uint tokens) external returns (bool success);\r\n    function transferFrom(address from, address to, uint tokens) external returns (bool success);\r\n\r\n    event Transfer(address indexed from, address indexed to, uint tokens);\r\n    event Approval(address indexed tokenOwner, address indexed spender, uint tokens);\r\n}\r\n\r\n//Hence these are all the functions that we need to implement in our contract.\r\n\r\n//Now this is our smart contract which is going to implement all these functions \r\ncontract Creatorcoins is ERC20Interface{\r\n\r\n    //This is the name of the tokens\r\n    string public name=\"Elon Musk\";\r\n\r\n    //This is the symbol of the tokens\r\n    string public symbol=\"EMT\";\r\n\r\n    //This is the decimal places upto which the token can be divided\r\n    uint public decimals=18;\r\n\r\n    //This is the total supply of the tokens that will be available\r\n    //There are 1 million tokens\r\n    uint public totalsupply=1000000;\r\n\r\n    //This is the address of the owner of the smart contract\r\n    address public owneroftokens;\r\n\r\n    //This is the mapping which maps each address to the amount of tokens that the address holds\r\n    mapping(address=>uint) public accounts;\r\n\r\n    //Initally all the 1lakh tokens are with the smart contract only\r\n    constructor() public{\r\n        accounts[address(this)]=totalsupply;\r\n        owneroftokens=address(this);\r\n    }\r\n\r\n    function owner() public view returns(address)\r\n    {\r\n        return owneroftokens;\r\n    }\r\n\r\n\r\n    //Now we are going to implement the totalSupply function which returns the total supply of the tokens\r\n    function totalSupply() public view returns(uint)\r\n    {\r\n        return totalsupply;\r\n    }\r\n\r\n    //This function returns the balance of the tokens of the smart contract\r\n    function balanceOf() public view returns(uint)\r\n    {\r\n        return accounts[address(this)];\r\n    }\r\n\r\n    //This function implements the balanceOf function\r\n    function balanceOf(address tokenowner) public view returns(uint)\r\n    {\r\n        return accounts[tokenowner];\r\n    }\r\n\r\n    //This function implements the transfer function\r\n    //In this function we are transferring the tokens from the owner of the smart contract to the sender\r\n     function transferto(address to, uint tokens) public returns (bool success)\r\n     {\r\n         require(accounts[owneroftokens]>=tokens,\"The sender cannot send more than what he/she owns\");\r\n         uint change1=accounts[owneroftokens];\r\n         change1-=tokens;\r\n         accounts[owneroftokens]=change1;\r\n\r\n        uint change2=accounts[to];\r\n         change2+=tokens;\r\n         accounts[to]=change2;\r\n        //  accounts[owneroftokens]=accounts[owneroftokens]-tokens;\r\n        //  accounts[to]=accounts[to]+tokens;\r\n         emit Transfer(owneroftokens, to, tokens);\r\n         return true;\r\n     }\r\n\r\n     //In this function we are transferring the tokens from the sender to the owner\r\n     function transferfrom(address from,uint tokens) public returns(bool success)\r\n     {\r\n         require(accounts[from]>=tokens,\"The sender cannot send more than what he/she owns\");\r\n         uint change1=accounts[from];\r\n         change1-=tokens;\r\n         accounts[from]=change1;\r\n\r\n        uint change2=accounts[owneroftokens];\r\n         change2+=tokens;\r\n         accounts[owneroftokens]=change2;\r\n        //  accounts[owneroftokens]=accounts[owneroftokens]-tokens;\r\n        //  accounts[to]=accounts[to]+tokens;\r\n         emit Transfer(from,owneroftokens , tokens);\r\n         return true;\r\n     }\r\n\r\n     mapping(address=>mapping(address=>uint)) public approved;\r\n\r\n     //This is the approve function which means that the sender approves the to that he/she can spend this much of money\r\n     //It is like writing a cheque to another person\r\n     function approve(address spender, uint tokens) public returns (bool success)\r\n     {\r\n         require(accounts[msg.sender]>=tokens,\"It should be greater\");\r\n         require(tokens>0);\r\n         approved[msg.sender][spender]=tokens;\r\n         emit Approval(msg.sender, spender, tokens);\r\n         return true;\r\n     }\r\n\r\n     function allowance(address tokenOwner, address spender) public view returns (uint)\r\n    {\r\n        return approved[tokenOwner][spender];\r\n    }\r\n\r\n    function transferFrom(address from,address to,uint tokens) public returns(bool)\r\n    {\r\n        //We first need to check in the approved mapping whether the tokens are greater than the argument\r\n        require(approved[from][msg.sender]>=tokens);\r\n        require(accounts[from]>=tokens);\r\n\r\n        accounts[from]-=tokens;\r\n        accounts[to]+=tokens;\r\n        approved[from][msg.sender]-=tokens;\r\n\r\n        emit Transfer(from,to,tokens);\r\n        return true;\r\n\r\n    }\r\n\r\n\r\n}\r\n",
  "sourcePath": "C:\\Users\\Bhaskar\\Desktop\\web 3.0\\FameVest\\truffle\\contracts\\Creatorcoins.sol",
  "compiler": {
    "name": "solc",
    "version": "0.8.14+commit.80d49f37.Emscripten.clang"
  },
  "schemaVersion": "3.4.9",
  "updatedAt": "2022-09-04T08:21:29.010Z",
  "networkType": "ethereum",
  "devdoc": {
    "kind": "dev",
    "methods": {},
    "version": 1
  },
  "userdoc": {
    "kind": "user",
    "methods": {},
    "version": 1
  }
}