{
  "contractName": "EthSwap",
  "abi": [
    {
      "inputs": [
        {
          "internalType": "address",
          "name": "othercontract",
          "type": "address"
        }
      ],
      "stateMutability": "nonpayable",
      "type": "constructor"
    },
    {
      "inputs": [],
      "name": "owneroftokens",
      "outputs": [
        {
          "internalType": "address",
          "name": "",
          "type": "address"
        }
      ],
      "stateMutability": "view",
      "type": "function",
      "constant": true
    },
    {
      "inputs": [],
      "name": "token",
      "outputs": [
        {
          "internalType": "contract Creatorcoins",
          "name": "",
          "type": "address"
        }
      ],
      "stateMutability": "view",
      "type": "function",
      "constant": true
    },
    {
      "inputs": [
        {
          "internalType": "address",
          "name": "",
          "type": "address"
        }
      ],
      "name": "tokenstotransfer",
      "outputs": [
        {
          "internalType": "uint256",
          "name": "",
          "type": "uint256"
        }
      ],
      "stateMutability": "view",
      "type": "function",
      "constant": true
    },
    {
      "inputs": [
        {
          "internalType": "address",
          "name": "account",
          "type": "address"
        }
      ],
      "name": "getbalance",
      "outputs": [
        {
          "internalType": "uint256",
          "name": "",
          "type": "uint256"
        }
      ],
      "stateMutability": "view",
      "type": "function",
      "constant": true
    },
    {
      "inputs": [],
      "name": "tp",
      "outputs": [
        {
          "internalType": "uint256",
          "name": "",
          "type": "uint256"
        }
      ],
      "stateMutability": "pure",
      "type": "function",
      "constant": true
    },
    {
      "inputs": [
        {
          "internalType": "uint256",
          "name": "_value",
          "type": "uint256"
        }
      ],
      "name": "buytokens",
      "outputs": [
        {
          "internalType": "uint256",
          "name": "",
          "type": "uint256"
        }
      ],
      "stateMutability": "payable",
      "type": "function",
      "payable": true
    },
    {
      "inputs": [],
      "name": "getBalances",
      "outputs": [
        {
          "internalType": "uint256",
          "name": "",
          "type": "uint256"
        }
      ],
      "stateMutability": "view",
      "type": "function",
      "constant": true
    },
    {
      "inputs": [
        {
          "internalType": "address",
          "name": "get",
          "type": "address"
        }
      ],
      "name": "getBalances",
      "outputs": [
        {
          "internalType": "uint256",
          "name": "",
          "type": "uint256"
        }
      ],
      "stateMutability": "view",
      "type": "function",
      "constant": true
    },
    {
      "inputs": [
        {
          "internalType": "uint256",
          "name": "tokenstosell",
          "type": "uint256"
        },
        {
          "internalType": "address payable",
          "name": "sender",
          "type": "address"
        }
      ],
      "name": "selltokens",
      "outputs": [],
      "stateMutability": "payable",
      "type": "function",
      "payable": true
    }
  ],
  "bytecode": "0x608060405234801561001057600080fd5b50604051610c34380380610c34833981810160405281019061003291906101aa565b806000806101000a81548173ffffffffffffffffffffffffffffffffffffffff021916908373ffffffffffffffffffffffffffffffffffffffff16021790555060008054906101000a900473ffffffffffffffffffffffffffffffffffffffff1673ffffffffffffffffffffffffffffffffffffffff1663069e4d7d6040518163ffffffff1660e01b8152600401602060405180830381865afa1580156100dd573d6000803e3d6000fd5b505050506040513d601f19601f8201168201806040525081019061010191906101aa565b600160006101000a81548173ffffffffffffffffffffffffffffffffffffffff021916908373ffffffffffffffffffffffffffffffffffffffff160217905550506101d7565b600080fd5b600073ffffffffffffffffffffffffffffffffffffffff82169050919050565b60006101778261014c565b9050919050565b6101878161016c565b811461019257600080fd5b50565b6000815190506101a48161017e565b92915050565b6000602082840312156101c0576101bf610147565b5b60006101ce84828501610195565b91505092915050565b610a4e806101e66000396000f3fe6080604052600436106100855760003560e01c80635ed1ca85116100595780635ed1ca85146101395780636811617714610169578063944de246146101a6578063c84aae17146101d1578063fc0c546a1461020e57610085565b8062113e081461008a578063069e4d7d146100b55780631db7f995146100e057806353737f271461011d575b600080fd5b34801561009657600080fd5b5061009f610239565b6040516100ac91906105ed565b60405180910390f35b3480156100c157600080fd5b506100ca610241565b6040516100d79190610649565b60405180910390f35b3480156100ec57600080fd5b5061010760048036038101906101029190610695565b610267565b60405161011491906105ed565b60405180910390f35b6101376004803603810190610132919061072c565b61027f565b005b610153600480360381019061014e919061076c565b6103a4565b60405161016091906105ed565b60405180910390f35b34801561017557600080fd5b50610190600480360381019061018b9190610695565b6104de565b60405161019d91906105ed565b60405180910390f35b3480156101b257600080fd5b506101bb610586565b6040516101c891906105ed565b60405180910390f35b3480156101dd57600080fd5b506101f860048036038101906101f39190610695565b61058f565b60405161020591906105ed565b60405180910390f35b34801561021a57600080fd5b506102236105b0565b60405161023091906107f8565b60405180910390f35b600047905090565b600160009054906101000a900473ffffffffffffffffffffffffffffffffffffffff1681565b60026020528060005260406000206000915090505481565b600260008273ffffffffffffffffffffffffffffffffffffffff1673ffffffffffffffffffffffffffffffffffffffff16815260200190815260200160002054821115610301576040517f08c379a00000000000000000000000000000000000000000000000000000000081526004016102f890610870565b60405180910390fd5b60008054906101000a900473ffffffffffffffffffffffffffffffffffffffff1673ffffffffffffffffffffffffffffffffffffffff1663362dc8a633846040518363ffffffff1660e01b815260040161035c929190610890565b6020604051808303816000875af115801561037b573d6000803e3d6000fd5b505050506040513d601f19601f8201168201806040525081019061039f91906108f1565b505050565b6000806103b03361058f565b9050808311156103f5576040517f08c379a00000000000000000000000000000000000000000000000000000000081526004016103ec906109b6565b60405180910390fd5b82600260003373ffffffffffffffffffffffffffffffffffffffff1673ffffffffffffffffffffffffffffffffffffffff1681526020019081526020016000208190555060008054906101000a900473ffffffffffffffffffffffffffffffffffffffff1673ffffffffffffffffffffffffffffffffffffffff16636b48d74633856040518363ffffffff1660e01b8152600401610494929190610890565b6020604051808303816000875af11580156104b3573d6000803e3d6000fd5b505050506040513d601f19601f820116820180604052508101906104d791906108f1565b5050919050565b60008060008054906101000a900473ffffffffffffffffffffffffffffffffffffffff1673ffffffffffffffffffffffffffffffffffffffff166370a08231846040518263ffffffff1660e01b815260040161053a9190610649565b602060405180830381865afa158015610557573d6000803e3d6000fd5b505050506040513d601f19601f8201168201806040525081019061057b91906109eb565b905080915050919050565b60006005905090565b60008173ffffffffffffffffffffffffffffffffffffffff16319050919050565b60008054906101000a900473ffffffffffffffffffffffffffffffffffffffff1681565b6000819050919050565b6105e7816105d4565b82525050565b600060208201905061060260008301846105de565b92915050565b600073ffffffffffffffffffffffffffffffffffffffff82169050919050565b600061063382610608565b9050919050565b61064381610628565b82525050565b600060208201905061065e600083018461063a565b92915050565b600080fd5b61067281610628565b811461067d57600080fd5b50565b60008135905061068f81610669565b92915050565b6000602082840312156106ab576106aa610664565b5b60006106b984828501610680565b91505092915050565b6106cb816105d4565b81146106d657600080fd5b50565b6000813590506106e8816106c2565b92915050565b60006106f982610608565b9050919050565b610709816106ee565b811461071457600080fd5b50565b60008135905061072681610700565b92915050565b6000806040838503121561074357610742610664565b5b6000610751858286016106d9565b925050602061076285828601610717565b9150509250929050565b60006020828403121561078257610781610664565b5b6000610790848285016106d9565b91505092915050565b6000819050919050565b60006107be6107b96107b484610608565b610799565b610608565b9050919050565b60006107d0826107a3565b9050919050565b60006107e2826107c5565b9050919050565b6107f2816107d7565b82525050565b600060208201905061080d60008301846107e9565b92915050565b600082825260208201905092915050565b7f54686520746f6b656e7320617265206e6f742073756666696369656e74000000600082015250565b600061085a601d83610813565b915061086582610824565b602082019050919050565b600060208201905081810360008301526108898161084d565b9050919050565b60006040820190506108a5600083018561063a565b6108b260208301846105de565b9392505050565b60008115159050919050565b6108ce816108b9565b81146108d957600080fd5b50565b6000815190506108eb816108c5565b92915050565b60006020828403121561090757610906610664565b5b6000610915848285016108dc565b91505092915050565b7f5468652062616c616e6365206f66207468652073656e646572206d757374206260008201527f652067726561746572207468616e207468652076616c75652073656e6420696e60208201527f7369646520746865206d73670000000000000000000000000000000000000000604082015250565b60006109a0604c83610813565b91506109ab8261091e565b606082019050919050565b600060208201905081810360008301526109cf81610993565b9050919050565b6000815190506109e5816106c2565b92915050565b600060208284031215610a0157610a00610664565b5b6000610a0f848285016109d6565b9150509291505056fea26469706673582212208e1ee6e615d082e0dfad9c0e91ce9839946cbf626443f579eba065ff5d86e1db64736f6c634300080e0033",
  "immutableReferences": {},
  "source": "//SPDX-License-Identifier:MIT\r\nimport './Creatorcoins.sol';\r\n\r\npragma solidity >=0.5.0 <0.9.0;\r\ncontract EthSwap{\r\n    //First we are going to have an instance variable which is the instance of the deployed token\r\n    Creatorcoins public token;\r\n    address public owneroftokens;\r\n\r\n    //Mapping for the tokens to transfer\r\n    mapping(address=>uint) public tokenstotransfer;\r\n\r\n    //With the help of this constructor we will be able to interact with the tokens smart contract instance\r\n    constructor(address othercontract) public\r\n    {\r\n        token=Creatorcoins(othercontract);\r\n        owneroftokens=token.owneroftokens();\r\n    }\r\n\r\n    function getbalance(address account) public view returns(uint){\r\n        uint balance=token.balanceOf(account);\r\n        return balance;\r\n    }\r\n\r\n    function tp() public pure returns(uint)\r\n    {\r\n        return 5;\r\n    }\r\n\r\n    //Now in the buytokens function we will pass the value of tokens that we need to transfer\r\n    function buytokens(uint _value) public payable returns(uint)\r\n    {\r\n        uint balance=getBalances(msg.sender);\r\n        require(_value<=balance,\"The balance of the sender must be greater than the value send inside the msg\");\r\n        tokenstotransfer[msg.sender]=_value;\r\n        token.transferto(msg.sender,_value);\r\n        \r\n    }\r\n\r\n    //This function returns the ether balance of the smart contract EthSwap\r\n    function getBalances() public view returns(uint)\r\n    {\r\n        return address(this).balance;\r\n    }\r\n\r\n    function getBalances(address get) public view returns(uint)\r\n    {\r\n        return address(get).balance;\r\n    }\r\n\r\n    function selltokens(uint tokenstosell,address payable sender) public payable {\r\n        require(tokenstosell<=tokenstotransfer[sender],\"The tokens are not sufficient\");\r\n        token.transferfrom(msg.sender,tokenstosell);\r\n    }\r\n\r\n}",
  "sourcePath": "C:\\Users\\Bhaskar\\Desktop\\web 3.0\\FameVest\\truffle\\contracts\\Ethswap.sol",
  "compiler": {
    "name": "solc",
    "version": "0.8.14+commit.80d49f37.Emscripten.clang"
  },
  "schemaVersion": "3.4.9",
  "updatedAt": "2022-09-04T08:23:29.050Z",
  "networkType": "ethereum",
  "devdoc": {
    "kind": "dev",
    "methods": {},
    "version": 1
  },
  "userdoc": {
    "kind": "user",
    "methods": {},
    "version": 1
  }
}