{
  "contractName": "Transferethers",
  "abi": [
    {
      "inputs": [
        {
          "internalType": "address",
          "name": "_company",
          "type": "address"
        }
      ],
      "stateMutability": "nonpayable",
      "type": "constructor"
    },
    {
      "anonymous": false,
      "inputs": [
        {
          "indexed": true,
          "internalType": "address",
          "name": "sender",
          "type": "address"
        },
        {
          "indexed": true,
          "internalType": "address",
          "name": "receiver",
          "type": "address"
        },
        {
          "indexed": false,
          "internalType": "uint256",
          "name": "amount",
          "type": "uint256"
        }
      ],
      "name": "Transfer",
      "type": "event"
    },
    {
      "stateMutability": "payable",
      "type": "fallback",
      "payable": true
    },
    {
      "inputs": [],
      "name": "companyacc",
      "outputs": [
        {
          "internalType": "address",
          "name": "",
          "type": "address"
        }
      ],
      "stateMutability": "view",
      "type": "function",
      "constant": true
    },
    {
      "inputs": [],
      "name": "transfer",
      "outputs": [
        {
          "internalType": "bool",
          "name": "",
          "type": "bool"
        }
      ],
      "stateMutability": "payable",
      "type": "function",
      "payable": true
    }
  ],
  "bytecode": "0x608060405234801561001057600080fd5b5060405161046c38038061046c833981810160405281019061003291906100db565b806000806101000a81548173ffffffffffffffffffffffffffffffffffffffff021916908373ffffffffffffffffffffffffffffffffffffffff16021790555050610108565b600080fd5b600073ffffffffffffffffffffffffffffffffffffffff82169050919050565b60006100a88261007d565b9050919050565b6100b88161009d565b81146100c357600080fd5b50565b6000815190506100d5816100af565b92915050565b6000602082840312156100f1576100f0610078565b5b60006100ff848285016100c6565b91505092915050565b610355806101176000396000f3fe60806040526004361061002d5760003560e01c80638a4068dd14610076578063bc081f6a146100945761002e565b5b3373ffffffffffffffffffffffffffffffffffffffff166108fc349081150290604051600060405180830381858888f19350505050158015610074573d6000803e3d6000fd5b005b61007e6100bf565b60405161008b919061022e565b60405180910390f35b3480156100a057600080fd5b506100a96101ef565b6040516100b6919061028a565b60405180910390f35b60008060008060009054906101000a900473ffffffffffffffffffffffffffffffffffffffff1673ffffffffffffffffffffffffffffffffffffffff1634604051610109906102d6565b60006040518083038185875af1925050503d8060008114610146576040519150601f19603f3d011682016040523d82523d6000602084013e61014b565b606091505b509150915081610160576000925050506101ec565b60008054906101000a900473ffffffffffffffffffffffffffffffffffffffff1673ffffffffffffffffffffffffffffffffffffffff163373ffffffffffffffffffffffffffffffffffffffff167fddf252ad1be2c89b69c2b068fc378daa952ba7f163c4a11628f55a4df523b3ef346040516101dd9190610304565b60405180910390a36001925050505b90565b60008054906101000a900473ffffffffffffffffffffffffffffffffffffffff1681565b60008115159050919050565b61022881610213565b82525050565b6000602082019050610243600083018461021f565b92915050565b600073ffffffffffffffffffffffffffffffffffffffff82169050919050565b600061027482610249565b9050919050565b61028481610269565b82525050565b600060208201905061029f600083018461027b565b92915050565b600081905092915050565b50565b60006102c06000836102a5565b91506102cb826102b0565b600082019050919050565b60006102e1826102b3565b9150819050919050565b6000819050919050565b6102fe816102eb565b82525050565b600060208201905061031960008301846102f5565b9291505056fea2646970667358221220916a1b79e8792bd84b3cc29d6505dd94760a5ebfc814395c67c53f1d7c446d9a64736f6c634300080e0033",
  "immutableReferences": {},
  "source": "\r\n//SPDX-License-Identifier:MIT\r\n\r\npragma solidity >=0.5.0 <0.9.0;\r\n\r\ncontract Transferethers{\r\n    address public companyacc;\r\n\r\n    event Transfer(address indexed sender,address indexed receiver,uint amount);\r\n\r\n\r\n\r\n    constructor(address _company)\r\n    {\r\n        companyacc=_company;\r\n    }\r\n\r\n    function transfer() external payable returns(bool) \r\n    {\r\n        //The account address transfers the ethers to the contract\r\n\r\n        //The contract then transfers the same amount of ethers to the companyacc\r\n        (bool sent,bytes memory data)=companyacc.call{value:msg.value}(\"\");\r\n        if(!sent)\r\n        {\r\n            return false;\r\n        }\r\n\r\n        emit Transfer(msg.sender,companyacc,msg.value);\r\n        return true;\r\n    }\r\n\r\n    fallback() external payable{\r\n        payable(msg.sender).transfer(msg.value);\r\n    }\r\n}",
  "sourcePath": "C:\\Users\\Bhaskar\\Desktop\\web 3.0\\FameVest\\truffle\\contracts\\Transferethers.sol",
  "compiler": {
    "name": "solc",
    "version": "0.8.14+commit.80d49f37.Emscripten.clang"
  },
  "schemaVersion": "3.4.9",
  "updatedAt": "2022-08-30T14:20:56.687Z",
  "networkType": "ethereum",
  "devdoc": {
    "kind": "dev",
    "methods": {},
    "version": 1
  },
  "userdoc": {
    "kind": "user",
    "methods": {},
    "version": 1
  }
}